{
  "contracts/Todo.sol": {
    "Todo": {
      "abi": [
        {
          "inputs": [
            {
              "internalType": "string",
              "name": "_title",
              "type": "string"
            }
          ],
          "name": "addTask",
          "outputs": [],
          "stateMutability": "nonpayable",
          "type": "function"
        },
        {
          "inputs": [
            {
              "internalType": "uint8",
              "name": "_id",
              "type": "uint8"
            }
          ],
          "name": "deleteTask",
          "outputs": [],
          "stateMutability": "nonpayable",
          "type": "function"
        },
        {
          "inputs": [],
          "name": "getTask",
          "outputs": [
            {
              "components": [
                {
                  "internalType": "uint8",
                  "name": "id",
                  "type": "uint8"
                },
                {
                  "internalType": "string",
                  "name": "title",
                  "type": "string"
                },
                {
                  "internalType": "bool",
                  "name": "isComplete",
                  "type": "bool"
                },
                {
                  "internalType": "uint256",
                  "name": "timestamp",
                  "type": "uint256"
                }
              ],
              "internalType": "struct Todo.Task[]",
              "name": "",
              "type": "tuple[]"
            }
          ],
          "stateMutability": "view",
          "type": "function"
        },
        {
          "inputs": [
            {
              "internalType": "uint8",
              "name": "_id",
              "type": "uint8"
            }
          ],
          "name": "markComplete",
          "outputs": [],
          "stateMutability": "nonpayable",
          "type": "function"
        },
        {
          "inputs": [
            {
              "internalType": "uint256",
              "name": "",
              "type": "uint256"
            }
          ],
          "name": "tasks",
          "outputs": [
            {
              "internalType": "uint8",
              "name": "id",
              "type": "uint8"
            },
            {
              "internalType": "string",
              "name": "title",
              "type": "string"
            },
            {
              "internalType": "bool",
              "name": "isComplete",
              "type": "bool"
            },
            {
              "internalType": "uint256",
              "name": "timestamp",
              "type": "uint256"
            }
          ],
          "stateMutability": "view",
          "type": "function"
        },
        {
          "inputs": [
            {
              "internalType": "uint8",
              "name": "_id",
              "type": "uint8"
            },
            {
              "internalType": "string",
              "name": "_title",
              "type": "string"
            }
          ],
          "name": "updateTask",
          "outputs": [],
          "stateMutability": "nonpayable",
          "type": "function"
        }
      ],
      "evm": {
        "bytecode": {
          "linkReferences": {},
          "object": "6080604052348015600f57600080fd5b506112888061001f6000396000f3fe608060405234801561001057600080fd5b50600436106100625760003560e01c8063672385621461006757806383de1242146100835780638d9776721461009f578063a31662d2146100d2578063c3d081f5146100f0578063db6e1d321461010c575b600080fd5b610081600480360381019061007c9190610927565b610128565b005b61009d600480360381019061009891906109a9565b61022b565b005b6100b960048036038101906100b49190610a0c565b610306565b6040516100c99493929190610af1565b60405180910390f35b6100da6103e8565b6040516100e79190610cd9565b60405180910390f35b61010a600480360381019061010591906109a9565b61051b565b005b61012660048036038101906101219190610cfb565b6106c8565b005b60018060009054906101000a900460ff166101439190610d86565b600160006101000a81548160ff021916908360ff16021790555060006040518060800160405280600160009054906101000a900460ff1660ff16815260200183815260200160001515815260200160008152509050600081908060018154018082558091505060019003906000526020600020906004020160009091909190915060008201518160000160006101000a81548160ff021916908360ff16021790555060208201518160010190816101fa9190610fc7565b5060408201518160020160006101000a81548160ff0219169083151502179055506060820151816003015550505050565b60005b6000805490508160ff161015610302578160ff1660008260ff168154811061025957610258611099565b5b906000526020600020906004020160000160009054906101000a900460ff1660ff16036102ef57600160008260ff168154811061029957610298611099565b5b906000526020600020906004020160020160006101000a81548160ff0219169083151502179055504260008260ff16815481106102d9576102d8611099565b5b9060005260206000209060040201600301819055505b80806102fa906110c8565b91505061022e565b5050565b6000818154811061031657600080fd5b90600052602060002090600402016000915090508060000160009054906101000a900460ff169080600101805461034c90610dea565b80601f016020809104026020016040519081016040528092919081815260200182805461037890610dea565b80156103c55780601f1061039a576101008083540402835291602001916103c5565b820191906000526020600020905b8154815290600101906020018083116103a857829003601f168201915b5050505050908060020160009054906101000a900460ff16908060030154905084565b60606000805480602002602001604051908101604052809291908181526020016000905b8282101561051257838290600052602060002090600402016040518060800160405290816000820160009054906101000a900460ff1660ff1660ff16815260200160018201805461045c90610dea565b80601f016020809104026020016040519081016040528092919081815260200182805461048890610dea565b80156104d55780601f106104aa576101008083540402835291602001916104d5565b820191906000526020600020905b8154815290600101906020018083116104b857829003601f168201915b505050505081526020016002820160009054906101000a900460ff161515151581526020016003820154815250508152602001906001019061040c565b50505050905090565b60005b6000805490508160ff1610156106c4578160ff1660008260ff168154811061054957610548611099565b5b906000526020600020906004020160000160009054906101000a900460ff1660ff16036106b1576000600160008054905061058491906110f1565b8154811061059557610594611099565b5b906000526020600020906004020160008260ff16815481106105ba576105b9611099565b5b90600052602060002090600402016000820160009054906101000a900460ff168160000160006101000a81548160ff021916908360ff1602179055506001820181600101908161060a919061113b565b506002820160009054906101000a900460ff168160020160006101000a81548160ff02191690831515021790555060038201548160030155905050600080548061065757610656611223565b5b6001900381819060005260206000209060040201600080820160006101000a81549060ff02191690556001820160006106909190610770565b6002820160006101000a81549060ff02191690556003820160009055505090555b80806106bc906110c8565b91505061051e565b5050565b60005b6000805490508160ff16101561076b578260ff1660008260ff16815481106106f6576106f5611099565b5b906000526020600020906004020160000160009054906101000a900460ff1660ff1603610758578160008260ff168154811061073557610734611099565b5b906000526020600020906004020160010190816107529190610fc7565b5061076b565b8080610763906110c8565b9150506106cb565b505050565b50805461077c90610dea565b6000825580601f1061078e57506107ad565b601f0160209004906000526020600020908101906107ac91906107b0565b5b50565b5b808211156107c95760008160009055506001016107b1565b5090565b6000604051905090565b600080fd5b600080fd5b600080fd5b600080fd5b6000601f19601f8301169050919050565b7f4e487b7100000000000000000000000000000000000000000000000000000000600052604160045260246000fd5b610834826107eb565b810181811067ffffffffffffffff82111715610853576108526107fc565b5b80604052505050565b60006108666107cd565b9050610872828261082b565b919050565b600067ffffffffffffffff821115610892576108916107fc565b5b61089b826107eb565b9050602081019050919050565b82818337600083830152505050565b60006108ca6108c584610877565b61085c565b9050828152602081018484840111156108e6576108e56107e6565b5b6108f18482856108a8565b509392505050565b600082601f83011261090e5761090d6107e1565b5b813561091e8482602086016108b7565b91505092915050565b60006020828403121561093d5761093c6107d7565b5b600082013567ffffffffffffffff81111561095b5761095a6107dc565b5b610967848285016108f9565b91505092915050565b600060ff82169050919050565b61098681610970565b811461099157600080fd5b50565b6000813590506109a38161097d565b92915050565b6000602082840312156109bf576109be6107d7565b5b60006109cd84828501610994565b91505092915050565b6000819050919050565b6109e9816109d6565b81146109f457600080fd5b50565b600081359050610a06816109e0565b92915050565b600060208284031215610a2257610a216107d7565b5b6000610a30848285016109f7565b91505092915050565b610a4281610970565b82525050565b600081519050919050565b600082825260208201905092915050565b60005b83811015610a82578082015181840152602081019050610a67565b60008484015250505050565b6000610a9982610a48565b610aa38185610a53565b9350610ab3818560208601610a64565b610abc816107eb565b840191505092915050565b60008115159050919050565b610adc81610ac7565b82525050565b610aeb816109d6565b82525050565b6000608082019050610b066000830187610a39565b8181036020830152610b188186610a8e565b9050610b276040830185610ad3565b610b346060830184610ae2565b95945050505050565b600081519050919050565b600082825260208201905092915050565b6000819050602082019050919050565b610b7281610970565b82525050565b600082825260208201905092915050565b6000610b9482610a48565b610b9e8185610b78565b9350610bae818560208601610a64565b610bb7816107eb565b840191505092915050565b610bcb81610ac7565b82525050565b610bda816109d6565b82525050565b6000608083016000830151610bf86000860182610b69565b5060208301518482036020860152610c108282610b89565b9150506040830151610c256040860182610bc2565b506060830151610c386060860182610bd1565b508091505092915050565b6000610c4f8383610be0565b905092915050565b6000602082019050919050565b6000610c6f82610b3d565b610c798185610b48565b935083602082028501610c8b85610b59565b8060005b85811015610cc75784840389528151610ca88582610c43565b9450610cb383610c57565b925060208a01995050600181019050610c8f565b50829750879550505050505092915050565b60006020820190508181036000830152610cf38184610c64565b905092915050565b60008060408385031215610d1257610d116107d7565b5b6000610d2085828601610994565b925050602083013567ffffffffffffffff811115610d4157610d406107dc565b5b610d4d858286016108f9565b9150509250929050565b7f4e487b7100000000000000000000000000000000000000000000000000000000600052601160045260246000fd5b6000610d9182610970565b9150610d9c83610970565b9250828201905060ff811115610db557610db4610d57565b5b92915050565b7f4e487b7100000000000000000000000000000000000000000000000000000000600052602260045260246000fd5b60006002820490506001821680610e0257607f821691505b602082108103610e1557610e14610dbb565b5b50919050565b60008190508160005260206000209050919050565b60006020601f8301049050919050565b600082821b905092915050565b600060088302610e7d7fffffffffffffffffffffffffffffffffffffffffffffffffffffffffffffffff82610e40565b610e878683610e40565b95508019841693508086168417925050509392505050565b6000819050919050565b6000610ec4610ebf610eba846109d6565b610e9f565b6109d6565b9050919050565b6000819050919050565b610ede83610ea9565b610ef2610eea82610ecb565b848454610e4d565b825550505050565b600090565b610f07610efa565b610f12818484610ed5565b505050565b5b81811015610f3657610f2b600082610eff565b600181019050610f18565b5050565b601f821115610f7b57610f4c81610e1b565b610f5584610e30565b81016020851015610f64578190505b610f78610f7085610e30565b830182610f17565b50505b505050565b600082821c905092915050565b6000610f9e60001984600802610f80565b1980831691505092915050565b6000610fb78383610f8d565b9150826002028217905092915050565b610fd082610a48565b67ffffffffffffffff811115610fe957610fe86107fc565b5b610ff38254610dea565b610ffe828285610f3a565b600060209050601f831160018114611031576000841561101f578287015190505b6110298582610fab565b865550611091565b601f19841661103f86610e1b565b60005b8281101561106757848901518255600182019150602085019450602081019050611042565b868310156110845784890151611080601f891682610f8d565b8355505b6001600288020188555050505b505050505050565b7f4e487b7100000000000000000000000000000000000000000000000000000000600052603260045260246000fd5b60006110d382610970565b915060ff82036110e6576110e5610d57565b5b600182019050919050565b60006110fc826109d6565b9150611107836109d6565b925082820390508181111561111f5761111e610d57565b5b92915050565b60008154905061113481610dea565b9050919050565b818103611149575050611221565b61115282611125565b67ffffffffffffffff81111561116b5761116a6107fc565b5b6111758254610dea565b611180828285610f3a565b6000601f8311600181146111af576000841561119d578287015490505b6111a78582610fab565b86555061121a565b601f1984166111bd87610e1b565b96506111c886610e1b565b60005b828110156111f0578489015482556001820191506001850194506020810190506111cb565b8683101561120d5784890154611209601f891682610f8d565b8355505b6001600288020188555050505b5050505050505b565b7f4e487b7100000000000000000000000000000000000000000000000000000000600052603160045260246000fdfea2646970667358221220440e842b5b8bcdd15e716dc72453e92bd500a7901ec32bf25fa75eabd9a738ab64736f6c634300081c0033",
          "opcodes": "PUSH1 0x80 PUSH1 0x40 MSTORE CALLVALUE DUP1 ISZERO PUSH1 0xF JUMPI PUSH1 0x0 DUP1 REVERT JUMPDEST POP PUSH2 0x1288 DUP1 PUSH2 0x1F PUSH1 0x0 CODECOPY PUSH1 0x0 RETURN INVALID PUSH1 0x80 PUSH1 0x40 MSTORE CALLVALUE DUP1 ISZERO PUSH2 0x10 JUMPI PUSH1 0x0 DUP1 REVERT JUMPDEST POP PUSH1 0x4 CALLDATASIZE LT PUSH2 0x62 JUMPI PUSH1 0x0 CALLDATALOAD PUSH1 0xE0 SHR DUP1 PUSH4 0x67238562 EQ PUSH2 0x67 JUMPI DUP1 PUSH4 0x83DE1242 EQ PUSH2 0x83 JUMPI DUP1 PUSH4 0x8D977672 EQ PUSH2 0x9F JUMPI DUP1 PUSH4 0xA31662D2 EQ PUSH2 0xD2 JUMPI DUP1 PUSH4 0xC3D081F5 EQ PUSH2 0xF0 JUMPI DUP1 PUSH4 0xDB6E1D32 EQ PUSH2 0x10C JUMPI JUMPDEST PUSH1 0x0 DUP1 REVERT JUMPDEST PUSH2 0x81 PUSH1 0x4 DUP1 CALLDATASIZE SUB DUP2 ADD SWAP1 PUSH2 0x7C SWAP2 SWAP1 PUSH2 0x927 JUMP JUMPDEST PUSH2 0x128 JUMP JUMPDEST STOP JUMPDEST PUSH2 0x9D PUSH1 0x4 DUP1 CALLDATASIZE SUB DUP2 ADD SWAP1 PUSH2 0x98 SWAP2 SWAP1 PUSH2 0x9A9 JUMP JUMPDEST PUSH2 0x22B JUMP JUMPDEST STOP JUMPDEST PUSH2 0xB9 PUSH1 0x4 DUP1 CALLDATASIZE SUB DUP2 ADD SWAP1 PUSH2 0xB4 SWAP2 SWAP1 PUSH2 0xA0C JUMP JUMPDEST PUSH2 0x306 JUMP JUMPDEST PUSH1 0x40 MLOAD PUSH2 0xC9 SWAP5 SWAP4 SWAP3 SWAP2 SWAP1 PUSH2 0xAF1 JUMP JUMPDEST PUSH1 0x40 MLOAD DUP1 SWAP2 SUB SWAP1 RETURN JUMPDEST PUSH2 0xDA PUSH2 0x3E8 JUMP JUMPDEST PUSH1 0x40 MLOAD PUSH2 0xE7 SWAP2 SWAP1 PUSH2 0xCD9 JUMP JUMPDEST PUSH1 0x40 MLOAD DUP1 SWAP2 SUB SWAP1 RETURN JUMPDEST PUSH2 0x10A PUSH1 0x4 DUP1 CALLDATASIZE SUB DUP2 ADD SWAP1 PUSH2 0x105 SWAP2 SWAP1 PUSH2 0x9A9 JUMP JUMPDEST PUSH2 0x51B JUMP JUMPDEST STOP JUMPDEST PUSH2 0x126 PUSH1 0x4 DUP1 CALLDATASIZE SUB DUP2 ADD SWAP1 PUSH2 0x121 SWAP2 SWAP1 PUSH2 0xCFB JUMP JUMPDEST PUSH2 0x6C8 JUMP JUMPDEST STOP JUMPDEST PUSH1 0x1 DUP1 PUSH1 0x0 SWAP1 SLOAD SWAP1 PUSH2 0x100 EXP SWAP1 DIV PUSH1 0xFF AND PUSH2 0x143 SWAP2 SWAP1 PUSH2 0xD86 JUMP JUMPDEST PUSH1 0x1 PUSH1 0x0 PUSH2 0x100 EXP DUP2 SLOAD DUP2 PUSH1 0xFF MUL NOT AND SWAP1 DUP4 PUSH1 0xFF AND MUL OR SWAP1 SSTORE POP PUSH1 0x0 PUSH1 0x40 MLOAD DUP1 PUSH1 0x80 ADD PUSH1 0x40 MSTORE DUP1 PUSH1 0x1 PUSH1 0x0 SWAP1 SLOAD SWAP1 PUSH2 0x100 EXP SWAP1 DIV PUSH1 0xFF AND PUSH1 0xFF AND DUP2 MSTORE PUSH1 0x20 ADD DUP4 DUP2 MSTORE PUSH1 0x20 ADD PUSH1 0x0 ISZERO ISZERO DUP2 MSTORE PUSH1 0x20 ADD PUSH1 0x0 DUP2 MSTORE POP SWAP1 POP PUSH1 0x0 DUP2 SWAP1 DUP1 PUSH1 0x1 DUP2 SLOAD ADD DUP1 DUP3 SSTORE DUP1 SWAP2 POP POP PUSH1 0x1 SWAP1 SUB SWAP1 PUSH1 0x0 MSTORE PUSH1 0x20 PUSH1 0x0 KECCAK256 SWAP1 PUSH1 0x4 MUL ADD PUSH1 0x0 SWAP1 SWAP2 SWAP1 SWAP2 SWAP1 SWAP2 POP PUSH1 0x0 DUP3 ADD MLOAD DUP2 PUSH1 0x0 ADD PUSH1 0x0 PUSH2 0x100 EXP DUP2 SLOAD DUP2 PUSH1 0xFF MUL NOT AND SWAP1 DUP4 PUSH1 0xFF AND MUL OR SWAP1 SSTORE POP PUSH1 0x20 DUP3 ADD MLOAD DUP2 PUSH1 0x1 ADD SWAP1 DUP2 PUSH2 0x1FA SWAP2 SWAP1 PUSH2 0xFC7 JUMP JUMPDEST POP PUSH1 0x40 DUP3 ADD MLOAD DUP2 PUSH1 0x2 ADD PUSH1 0x0 PUSH2 0x100 EXP DUP2 SLOAD DUP2 PUSH1 0xFF MUL NOT AND SWAP1 DUP4 ISZERO ISZERO MUL OR SWAP1 SSTORE POP PUSH1 0x60 DUP3 ADD MLOAD DUP2 PUSH1 0x3 ADD SSTORE POP POP POP POP JUMP JUMPDEST PUSH1 0x0 JUMPDEST PUSH1 0x0 DUP1 SLOAD SWAP1 POP DUP2 PUSH1 0xFF AND LT ISZERO PUSH2 0x302 JUMPI DUP2 PUSH1 0xFF AND PUSH1 0x0 DUP3 PUSH1 0xFF AND DUP2 SLOAD DUP2 LT PUSH2 0x259 JUMPI PUSH2 0x258 PUSH2 0x1099 JUMP JUMPDEST JUMPDEST SWAP1 PUSH1 0x0 MSTORE PUSH1 0x20 PUSH1 0x0 KECCAK256 SWAP1 PUSH1 0x4 MUL ADD PUSH1 0x0 ADD PUSH1 0x0 SWAP1 SLOAD SWAP1 PUSH2 0x100 EXP SWAP1 DIV PUSH1 0xFF AND PUSH1 0xFF AND SUB PUSH2 0x2EF JUMPI PUSH1 0x1 PUSH1 0x0 DUP3 PUSH1 0xFF AND DUP2 SLOAD DUP2 LT PUSH2 0x299 JUMPI PUSH2 0x298 PUSH2 0x1099 JUMP JUMPDEST JUMPDEST SWAP1 PUSH1 0x0 MSTORE PUSH1 0x20 PUSH1 0x0 KECCAK256 SWAP1 PUSH1 0x4 MUL ADD PUSH1 0x2 ADD PUSH1 0x0 PUSH2 0x100 EXP DUP2 SLOAD DUP2 PUSH1 0xFF MUL NOT AND SWAP1 DUP4 ISZERO ISZERO MUL OR SWAP1 SSTORE POP TIMESTAMP PUSH1 0x0 DUP3 PUSH1 0xFF AND DUP2 SLOAD DUP2 LT PUSH2 0x2D9 JUMPI PUSH2 0x2D8 PUSH2 0x1099 JUMP JUMPDEST JUMPDEST SWAP1 PUSH1 0x0 MSTORE PUSH1 0x20 PUSH1 0x0 KECCAK256 SWAP1 PUSH1 0x4 MUL ADD PUSH1 0x3 ADD DUP2 SWAP1 SSTORE POP JUMPDEST DUP1 DUP1 PUSH2 0x2FA SWAP1 PUSH2 0x10C8 JUMP JUMPDEST SWAP2 POP POP PUSH2 0x22E JUMP JUMPDEST POP POP JUMP JUMPDEST PUSH1 0x0 DUP2 DUP2 SLOAD DUP2 LT PUSH2 0x316 JUMPI PUSH1 0x0 DUP1 REVERT JUMPDEST SWAP1 PUSH1 0x0 MSTORE PUSH1 0x20 PUSH1 0x0 KECCAK256 SWAP1 PUSH1 0x4 MUL ADD PUSH1 0x0 SWAP2 POP SWAP1 POP DUP1 PUSH1 0x0 ADD PUSH1 0x0 SWAP1 SLOAD SWAP1 PUSH2 0x100 EXP SWAP1 DIV PUSH1 0xFF AND SWAP1 DUP1 PUSH1 0x1 ADD DUP1 SLOAD PUSH2 0x34C SWAP1 PUSH2 0xDEA JUMP JUMPDEST DUP1 PUSH1 0x1F ADD PUSH1 0x20 DUP1 SWAP2 DIV MUL PUSH1 0x20 ADD PUSH1 0x40 MLOAD SWAP1 DUP2 ADD PUSH1 0x40 MSTORE DUP1 SWAP3 SWAP2 SWAP1 DUP2 DUP2 MSTORE PUSH1 0x20 ADD DUP3 DUP1 SLOAD PUSH2 0x378 SWAP1 PUSH2 0xDEA JUMP JUMPDEST DUP1 ISZERO PUSH2 0x3C5 JUMPI DUP1 PUSH1 0x1F LT PUSH2 0x39A JUMPI PUSH2 0x100 DUP1 DUP4 SLOAD DIV MUL DUP4 MSTORE SWAP2 PUSH1 0x20 ADD SWAP2 PUSH2 0x3C5 JUMP JUMPDEST DUP3 ADD SWAP2 SWAP1 PUSH1 0x0 MSTORE PUSH1 0x20 PUSH1 0x0 KECCAK256 SWAP1 JUMPDEST DUP2 SLOAD DUP2 MSTORE SWAP1 PUSH1 0x1 ADD SWAP1 PUSH1 0x20 ADD DUP1 DUP4 GT PUSH2 0x3A8 JUMPI DUP3 SWAP1 SUB PUSH1 0x1F AND DUP3 ADD SWAP2 JUMPDEST POP POP POP POP POP SWAP1 DUP1 PUSH1 0x2 ADD PUSH1 0x0 SWAP1 SLOAD SWAP1 PUSH2 0x100 EXP SWAP1 DIV PUSH1 0xFF AND SWAP1 DUP1 PUSH1 0x3 ADD SLOAD SWAP1 POP DUP5 JUMP JUMPDEST PUSH1 0x60 PUSH1 0x0 DUP1 SLOAD DUP1 PUSH1 0x20 MUL PUSH1 0x20 ADD PUSH1 0x40 MLOAD SWAP1 DUP2 ADD PUSH1 0x40 MSTORE DUP1 SWAP3 SWAP2 SWAP1 DUP2 DUP2 MSTORE PUSH1 0x20 ADD PUSH1 0x0 SWAP1 JUMPDEST DUP3 DUP3 LT ISZERO PUSH2 0x512 JUMPI DUP4 DUP3 SWAP1 PUSH1 0x0 MSTORE PUSH1 0x20 PUSH1 0x0 KECCAK256 SWAP1 PUSH1 0x4 MUL ADD PUSH1 0x40 MLOAD DUP1 PUSH1 0x80 ADD PUSH1 0x40 MSTORE SWAP1 DUP2 PUSH1 0x0 DUP3 ADD PUSH1 0x0 SWAP1 SLOAD SWAP1 PUSH2 0x100 EXP SWAP1 DIV PUSH1 0xFF AND PUSH1 0xFF AND PUSH1 0xFF AND DUP2 MSTORE PUSH1 0x20 ADD PUSH1 0x1 DUP3 ADD DUP1 SLOAD PUSH2 0x45C SWAP1 PUSH2 0xDEA JUMP JUMPDEST DUP1 PUSH1 0x1F ADD PUSH1 0x20 DUP1 SWAP2 DIV MUL PUSH1 0x20 ADD PUSH1 0x40 MLOAD SWAP1 DUP2 ADD PUSH1 0x40 MSTORE DUP1 SWAP3 SWAP2 SWAP1 DUP2 DUP2 MSTORE PUSH1 0x20 ADD DUP3 DUP1 SLOAD PUSH2 0x488 SWAP1 PUSH2 0xDEA JUMP JUMPDEST DUP1 ISZERO PUSH2 0x4D5 JUMPI DUP1 PUSH1 0x1F LT PUSH2 0x4AA JUMPI PUSH2 0x100 DUP1 DUP4 SLOAD DIV MUL DUP4 MSTORE SWAP2 PUSH1 0x20 ADD SWAP2 PUSH2 0x4D5 JUMP JUMPDEST DUP3 ADD SWAP2 SWAP1 PUSH1 0x0 MSTORE PUSH1 0x20 PUSH1 0x0 KECCAK256 SWAP1 JUMPDEST DUP2 SLOAD DUP2 MSTORE SWAP1 PUSH1 0x1 ADD SWAP1 PUSH1 0x20 ADD DUP1 DUP4 GT PUSH2 0x4B8 JUMPI DUP3 SWAP1 SUB PUSH1 0x1F AND DUP3 ADD SWAP2 JUMPDEST POP POP POP POP POP DUP2 MSTORE PUSH1 0x20 ADD PUSH1 0x2 DUP3 ADD PUSH1 0x0 SWAP1 SLOAD SWAP1 PUSH2 0x100 EXP SWAP1 DIV PUSH1 0xFF AND ISZERO ISZERO ISZERO ISZERO DUP2 MSTORE PUSH1 0x20 ADD PUSH1 0x3 DUP3 ADD SLOAD DUP2 MSTORE POP POP DUP2 MSTORE PUSH1 0x20 ADD SWAP1 PUSH1 0x1 ADD SWAP1 PUSH2 0x40C JUMP JUMPDEST POP POP POP POP SWAP1 POP SWAP1 JUMP JUMPDEST PUSH1 0x0 JUMPDEST PUSH1 0x0 DUP1 SLOAD SWAP1 POP DUP2 PUSH1 0xFF AND LT ISZERO PUSH2 0x6C4 JUMPI DUP2 PUSH1 0xFF AND PUSH1 0x0 DUP3 PUSH1 0xFF AND DUP2 SLOAD DUP2 LT PUSH2 0x549 JUMPI PUSH2 0x548 PUSH2 0x1099 JUMP JUMPDEST JUMPDEST SWAP1 PUSH1 0x0 MSTORE PUSH1 0x20 PUSH1 0x0 KECCAK256 SWAP1 PUSH1 0x4 MUL ADD PUSH1 0x0 ADD PUSH1 0x0 SWAP1 SLOAD SWAP1 PUSH2 0x100 EXP SWAP1 DIV PUSH1 0xFF AND PUSH1 0xFF AND SUB PUSH2 0x6B1 JUMPI PUSH1 0x0 PUSH1 0x1 PUSH1 0x0 DUP1 SLOAD SWAP1 POP PUSH2 0x584 SWAP2 SWAP1 PUSH2 0x10F1 JUMP JUMPDEST DUP2 SLOAD DUP2 LT PUSH2 0x595 JUMPI PUSH2 0x594 PUSH2 0x1099 JUMP JUMPDEST JUMPDEST SWAP1 PUSH1 0x0 MSTORE PUSH1 0x20 PUSH1 0x0 KECCAK256 SWAP1 PUSH1 0x4 MUL ADD PUSH1 0x0 DUP3 PUSH1 0xFF AND DUP2 SLOAD DUP2 LT PUSH2 0x5BA JUMPI PUSH2 0x5B9 PUSH2 0x1099 JUMP JUMPDEST JUMPDEST SWAP1 PUSH1 0x0 MSTORE PUSH1 0x20 PUSH1 0x0 KECCAK256 SWAP1 PUSH1 0x4 MUL ADD PUSH1 0x0 DUP3 ADD PUSH1 0x0 SWAP1 SLOAD SWAP1 PUSH2 0x100 EXP SWAP1 DIV PUSH1 0xFF AND DUP2 PUSH1 0x0 ADD PUSH1 0x0 PUSH2 0x100 EXP DUP2 SLOAD DUP2 PUSH1 0xFF MUL NOT AND SWAP1 DUP4 PUSH1 0xFF AND MUL OR SWAP1 SSTORE POP PUSH1 0x1 DUP3 ADD DUP2 PUSH1 0x1 ADD SWAP1 DUP2 PUSH2 0x60A SWAP2 SWAP1 PUSH2 0x113B JUMP JUMPDEST POP PUSH1 0x2 DUP3 ADD PUSH1 0x0 SWAP1 SLOAD SWAP1 PUSH2 0x100 EXP SWAP1 DIV PUSH1 0xFF AND DUP2 PUSH1 0x2 ADD PUSH1 0x0 PUSH2 0x100 EXP DUP2 SLOAD DUP2 PUSH1 0xFF MUL NOT AND SWAP1 DUP4 ISZERO ISZERO MUL OR SWAP1 SSTORE POP PUSH1 0x3 DUP3 ADD SLOAD DUP2 PUSH1 0x3 ADD SSTORE SWAP1 POP POP PUSH1 0x0 DUP1 SLOAD DUP1 PUSH2 0x657 JUMPI PUSH2 0x656 PUSH2 0x1223 JUMP JUMPDEST JUMPDEST PUSH1 0x1 SWAP1 SUB DUP2 DUP2 SWAP1 PUSH1 0x0 MSTORE PUSH1 0x20 PUSH1 0x0 KECCAK256 SWAP1 PUSH1 0x4 MUL ADD PUSH1 0x0 DUP1 DUP3 ADD PUSH1 0x0 PUSH2 0x100 EXP DUP2 SLOAD SWAP1 PUSH1 0xFF MUL NOT AND SWAP1 SSTORE PUSH1 0x1 DUP3 ADD PUSH1 0x0 PUSH2 0x690 SWAP2 SWAP1 PUSH2 0x770 JUMP JUMPDEST PUSH1 0x2 DUP3 ADD PUSH1 0x0 PUSH2 0x100 EXP DUP2 SLOAD SWAP1 PUSH1 0xFF MUL NOT AND SWAP1 SSTORE PUSH1 0x3 DUP3 ADD PUSH1 0x0 SWAP1 SSTORE POP POP SWAP1 SSTORE JUMPDEST DUP1 DUP1 PUSH2 0x6BC SWAP1 PUSH2 0x10C8 JUMP JUMPDEST SWAP2 POP POP PUSH2 0x51E JUMP JUMPDEST POP POP JUMP JUMPDEST PUSH1 0x0 JUMPDEST PUSH1 0x0 DUP1 SLOAD SWAP1 POP DUP2 PUSH1 0xFF AND LT ISZERO PUSH2 0x76B JUMPI DUP3 PUSH1 0xFF AND PUSH1 0x0 DUP3 PUSH1 0xFF AND DUP2 SLOAD DUP2 LT PUSH2 0x6F6 JUMPI PUSH2 0x6F5 PUSH2 0x1099 JUMP JUMPDEST JUMPDEST SWAP1 PUSH1 0x0 MSTORE PUSH1 0x20 PUSH1 0x0 KECCAK256 SWAP1 PUSH1 0x4 MUL ADD PUSH1 0x0 ADD PUSH1 0x0 SWAP1 SLOAD SWAP1 PUSH2 0x100 EXP SWAP1 DIV PUSH1 0xFF AND PUSH1 0xFF AND SUB PUSH2 0x758 JUMPI DUP2 PUSH1 0x0 DUP3 PUSH1 0xFF AND DUP2 SLOAD DUP2 LT PUSH2 0x735 JUMPI PUSH2 0x734 PUSH2 0x1099 JUMP JUMPDEST JUMPDEST SWAP1 PUSH1 0x0 MSTORE PUSH1 0x20 PUSH1 0x0 KECCAK256 SWAP1 PUSH1 0x4 MUL ADD PUSH1 0x1 ADD SWAP1 DUP2 PUSH2 0x752 SWAP2 SWAP1 PUSH2 0xFC7 JUMP JUMPDEST POP PUSH2 0x76B JUMP JUMPDEST DUP1 DUP1 PUSH2 0x763 SWAP1 PUSH2 0x10C8 JUMP JUMPDEST SWAP2 POP POP PUSH2 0x6CB JUMP JUMPDEST POP POP POP JUMP JUMPDEST POP DUP1 SLOAD PUSH2 0x77C SWAP1 PUSH2 0xDEA JUMP JUMPDEST PUSH1 0x0 DUP3 SSTORE DUP1 PUSH1 0x1F LT PUSH2 0x78E JUMPI POP PUSH2 0x7AD JUMP JUMPDEST PUSH1 0x1F ADD PUSH1 0x20 SWAP1 DIV SWAP1 PUSH1 0x0 MSTORE PUSH1 0x20 PUSH1 0x0 KECCAK256 SWAP1 DUP2 ADD SWAP1 PUSH2 0x7AC SWAP2 SWAP1 PUSH2 0x7B0 JUMP JUMPDEST JUMPDEST POP JUMP JUMPDEST JUMPDEST DUP1 DUP3 GT ISZERO PUSH2 0x7C9 JUMPI PUSH1 0x0 DUP2 PUSH1 0x0 SWAP1 SSTORE POP PUSH1 0x1 ADD PUSH2 0x7B1 JUMP JUMPDEST POP SWAP1 JUMP JUMPDEST PUSH1 0x0 PUSH1 0x40 MLOAD SWAP1 POP SWAP1 JUMP JUMPDEST PUSH1 0x0 DUP1 REVERT JUMPDEST PUSH1 0x0 DUP1 REVERT JUMPDEST PUSH1 0x0 DUP1 REVERT JUMPDEST PUSH1 0x0 DUP1 REVERT JUMPDEST PUSH1 0x0 PUSH1 0x1F NOT PUSH1 0x1F DUP4 ADD AND SWAP1 POP SWAP2 SWAP1 POP JUMP JUMPDEST PUSH32 0x4E487B7100000000000000000000000000000000000000000000000000000000 PUSH1 0x0 MSTORE PUSH1 0x41 PUSH1 0x4 MSTORE PUSH1 0x24 PUSH1 0x0 REVERT JUMPDEST PUSH2 0x834 DUP3 PUSH2 0x7EB JUMP JUMPDEST DUP2 ADD DUP2 DUP2 LT PUSH8 0xFFFFFFFFFFFFFFFF DUP3 GT OR ISZERO PUSH2 0x853 JUMPI PUSH2 0x852 PUSH2 0x7FC JUMP JUMPDEST JUMPDEST DUP1 PUSH1 0x40 MSTORE POP POP POP JUMP JUMPDEST PUSH1 0x0 PUSH2 0x866 PUSH2 0x7CD JUMP JUMPDEST SWAP1 POP PUSH2 0x872 DUP3 DUP3 PUSH2 0x82B JUMP JUMPDEST SWAP2 SWAP1 POP JUMP JUMPDEST PUSH1 0x0 PUSH8 0xFFFFFFFFFFFFFFFF DUP3 GT ISZERO PUSH2 0x892 JUMPI PUSH2 0x891 PUSH2 0x7FC JUMP JUMPDEST JUMPDEST PUSH2 0x89B DUP3 PUSH2 0x7EB JUMP JUMPDEST SWAP1 POP PUSH1 0x20 DUP2 ADD SWAP1 POP SWAP2 SWAP1 POP JUMP JUMPDEST DUP3 DUP2 DUP4 CALLDATACOPY PUSH1 0x0 DUP4 DUP4 ADD MSTORE POP POP POP JUMP JUMPDEST PUSH1 0x0 PUSH2 0x8CA PUSH2 0x8C5 DUP5 PUSH2 0x877 JUMP JUMPDEST PUSH2 0x85C JUMP JUMPDEST SWAP1 POP DUP3 DUP2 MSTORE PUSH1 0x20 DUP2 ADD DUP5 DUP5 DUP5 ADD GT ISZERO PUSH2 0x8E6 JUMPI PUSH2 0x8E5 PUSH2 0x7E6 JUMP JUMPDEST JUMPDEST PUSH2 0x8F1 DUP5 DUP3 DUP6 PUSH2 0x8A8 JUMP JUMPDEST POP SWAP4 SWAP3 POP POP POP JUMP JUMPDEST PUSH1 0x0 DUP3 PUSH1 0x1F DUP4 ADD SLT PUSH2 0x90E JUMPI PUSH2 0x90D PUSH2 0x7E1 JUMP JUMPDEST JUMPDEST DUP2 CALLDATALOAD PUSH2 0x91E DUP5 DUP3 PUSH1 0x20 DUP7 ADD PUSH2 0x8B7 JUMP JUMPDEST SWAP2 POP POP SWAP3 SWAP2 POP POP JUMP JUMPDEST PUSH1 0x0 PUSH1 0x20 DUP3 DUP5 SUB SLT ISZERO PUSH2 0x93D JUMPI PUSH2 0x93C PUSH2 0x7D7 JUMP JUMPDEST JUMPDEST PUSH1 0x0 DUP3 ADD CALLDATALOAD PUSH8 0xFFFFFFFFFFFFFFFF DUP2 GT ISZERO PUSH2 0x95B JUMPI PUSH2 0x95A PUSH2 0x7DC JUMP JUMPDEST JUMPDEST PUSH2 0x967 DUP5 DUP3 DUP6 ADD PUSH2 0x8F9 JUMP JUMPDEST SWAP2 POP POP SWAP3 SWAP2 POP POP JUMP JUMPDEST PUSH1 0x0 PUSH1 0xFF DUP3 AND SWAP1 POP SWAP2 SWAP1 POP JUMP JUMPDEST PUSH2 0x986 DUP2 PUSH2 0x970 JUMP JUMPDEST DUP2 EQ PUSH2 0x991 JUMPI PUSH1 0x0 DUP1 REVERT JUMPDEST POP JUMP JUMPDEST PUSH1 0x0 DUP2 CALLDATALOAD SWAP1 POP PUSH2 0x9A3 DUP2 PUSH2 0x97D JUMP JUMPDEST SWAP3 SWAP2 POP POP JUMP JUMPDEST PUSH1 0x0 PUSH1 0x20 DUP3 DUP5 SUB SLT ISZERO PUSH2 0x9BF JUMPI PUSH2 0x9BE PUSH2 0x7D7 JUMP JUMPDEST JUMPDEST PUSH1 0x0 PUSH2 0x9CD DUP5 DUP3 DUP6 ADD PUSH2 0x994 JUMP JUMPDEST SWAP2 POP POP SWAP3 SWAP2 POP POP JUMP JUMPDEST PUSH1 0x0 DUP2 SWAP1 POP SWAP2 SWAP1 POP JUMP JUMPDEST PUSH2 0x9E9 DUP2 PUSH2 0x9D6 JUMP JUMPDEST DUP2 EQ PUSH2 0x9F4 JUMPI PUSH1 0x0 DUP1 REVERT JUMPDEST POP JUMP JUMPDEST PUSH1 0x0 DUP2 CALLDATALOAD SWAP1 POP PUSH2 0xA06 DUP2 PUSH2 0x9E0 JUMP JUMPDEST SWAP3 SWAP2 POP POP JUMP JUMPDEST PUSH1 0x0 PUSH1 0x20 DUP3 DUP5 SUB SLT ISZERO PUSH2 0xA22 JUMPI PUSH2 0xA21 PUSH2 0x7D7 JUMP JUMPDEST JUMPDEST PUSH1 0x0 PUSH2 0xA30 DUP5 DUP3 DUP6 ADD PUSH2 0x9F7 JUMP JUMPDEST SWAP2 POP POP SWAP3 SWAP2 POP POP JUMP JUMPDEST PUSH2 0xA42 DUP2 PUSH2 0x970 JUMP JUMPDEST DUP3 MSTORE POP POP JUMP JUMPDEST PUSH1 0x0 DUP2 MLOAD SWAP1 POP SWAP2 SWAP1 POP JUMP JUMPDEST PUSH1 0x0 DUP3 DUP3 MSTORE PUSH1 0x20 DUP3 ADD SWAP1 POP SWAP3 SWAP2 POP POP JUMP JUMPDEST PUSH1 0x0 JUMPDEST DUP4 DUP2 LT ISZERO PUSH2 0xA82 JUMPI DUP1 DUP3 ADD MLOAD DUP2 DUP5 ADD MSTORE PUSH1 0x20 DUP2 ADD SWAP1 POP PUSH2 0xA67 JUMP JUMPDEST PUSH1 0x0 DUP5 DUP5 ADD MSTORE POP POP POP POP JUMP JUMPDEST PUSH1 0x0 PUSH2 0xA99 DUP3 PUSH2 0xA48 JUMP JUMPDEST PUSH2 0xAA3 DUP2 DUP6 PUSH2 0xA53 JUMP JUMPDEST SWAP4 POP PUSH2 0xAB3 DUP2 DUP6 PUSH1 0x20 DUP7 ADD PUSH2 0xA64 JUMP JUMPDEST PUSH2 0xABC DUP2 PUSH2 0x7EB JUMP JUMPDEST DUP5 ADD SWAP2 POP POP SWAP3 SWAP2 POP POP JUMP JUMPDEST PUSH1 0x0 DUP2 ISZERO ISZERO SWAP1 POP SWAP2 SWAP1 POP JUMP JUMPDEST PUSH2 0xADC DUP2 PUSH2 0xAC7 JUMP JUMPDEST DUP3 MSTORE POP POP JUMP JUMPDEST PUSH2 0xAEB DUP2 PUSH2 0x9D6 JUMP JUMPDEST DUP3 MSTORE POP POP JUMP JUMPDEST PUSH1 0x0 PUSH1 0x80 DUP3 ADD SWAP1 POP PUSH2 0xB06 PUSH1 0x0 DUP4 ADD DUP8 PUSH2 0xA39 JUMP JUMPDEST DUP2 DUP2 SUB PUSH1 0x20 DUP4 ADD MSTORE PUSH2 0xB18 DUP2 DUP7 PUSH2 0xA8E JUMP JUMPDEST SWAP1 POP PUSH2 0xB27 PUSH1 0x40 DUP4 ADD DUP6 PUSH2 0xAD3 JUMP JUMPDEST PUSH2 0xB34 PUSH1 0x60 DUP4 ADD DUP5 PUSH2 0xAE2 JUMP JUMPDEST SWAP6 SWAP5 POP POP POP POP POP JUMP JUMPDEST PUSH1 0x0 DUP2 MLOAD SWAP1 POP SWAP2 SWAP1 POP JUMP JUMPDEST PUSH1 0x0 DUP3 DUP3 MSTORE PUSH1 0x20 DUP3 ADD SWAP1 POP SWAP3 SWAP2 POP POP JUMP JUMPDEST PUSH1 0x0 DUP2 SWAP1 POP PUSH1 0x20 DUP3 ADD SWAP1 POP SWAP2 SWAP1 POP JUMP JUMPDEST PUSH2 0xB72 DUP2 PUSH2 0x970 JUMP JUMPDEST DUP3 MSTORE POP POP JUMP JUMPDEST PUSH1 0x0 DUP3 DUP3 MSTORE PUSH1 0x20 DUP3 ADD SWAP1 POP SWAP3 SWAP2 POP POP JUMP JUMPDEST PUSH1 0x0 PUSH2 0xB94 DUP3 PUSH2 0xA48 JUMP JUMPDEST PUSH2 0xB9E DUP2 DUP6 PUSH2 0xB78 JUMP JUMPDEST SWAP4 POP PUSH2 0xBAE DUP2 DUP6 PUSH1 0x20 DUP7 ADD PUSH2 0xA64 JUMP JUMPDEST PUSH2 0xBB7 DUP2 PUSH2 0x7EB JUMP JUMPDEST DUP5 ADD SWAP2 POP POP SWAP3 SWAP2 POP POP JUMP JUMPDEST PUSH2 0xBCB DUP2 PUSH2 0xAC7 JUMP JUMPDEST DUP3 MSTORE POP POP JUMP JUMPDEST PUSH2 0xBDA DUP2 PUSH2 0x9D6 JUMP JUMPDEST DUP3 MSTORE POP POP JUMP JUMPDEST PUSH1 0x0 PUSH1 0x80 DUP4 ADD PUSH1 0x0 DUP4 ADD MLOAD PUSH2 0xBF8 PUSH1 0x0 DUP7 ADD DUP3 PUSH2 0xB69 JUMP JUMPDEST POP PUSH1 0x20 DUP4 ADD MLOAD DUP5 DUP3 SUB PUSH1 0x20 DUP7 ADD MSTORE PUSH2 0xC10 DUP3 DUP3 PUSH2 0xB89 JUMP JUMPDEST SWAP2 POP POP PUSH1 0x40 DUP4 ADD MLOAD PUSH2 0xC25 PUSH1 0x40 DUP7 ADD DUP3 PUSH2 0xBC2 JUMP JUMPDEST POP PUSH1 0x60 DUP4 ADD MLOAD PUSH2 0xC38 PUSH1 0x60 DUP7 ADD DUP3 PUSH2 0xBD1 JUMP JUMPDEST POP DUP1 SWAP2 POP POP SWAP3 SWAP2 POP POP JUMP JUMPDEST PUSH1 0x0 PUSH2 0xC4F DUP4 DUP4 PUSH2 0xBE0 JUMP JUMPDEST SWAP1 POP SWAP3 SWAP2 POP POP JUMP JUMPDEST PUSH1 0x0 PUSH1 0x20 DUP3 ADD SWAP1 POP SWAP2 SWAP1 POP JUMP JUMPDEST PUSH1 0x0 PUSH2 0xC6F DUP3 PUSH2 0xB3D JUMP JUMPDEST PUSH2 0xC79 DUP2 DUP6 PUSH2 0xB48 JUMP JUMPDEST SWAP4 POP DUP4 PUSH1 0x20 DUP3 MUL DUP6 ADD PUSH2 0xC8B DUP6 PUSH2 0xB59 JUMP JUMPDEST DUP1 PUSH1 0x0 JUMPDEST DUP6 DUP2 LT ISZERO PUSH2 0xCC7 JUMPI DUP5 DUP5 SUB DUP10 MSTORE DUP2 MLOAD PUSH2 0xCA8 DUP6 DUP3 PUSH2 0xC43 JUMP JUMPDEST SWAP5 POP PUSH2 0xCB3 DUP4 PUSH2 0xC57 JUMP JUMPDEST SWAP3 POP PUSH1 0x20 DUP11 ADD SWAP10 POP POP PUSH1 0x1 DUP2 ADD SWAP1 POP PUSH2 0xC8F JUMP JUMPDEST POP DUP3 SWAP8 POP DUP8 SWAP6 POP POP POP POP POP POP SWAP3 SWAP2 POP POP JUMP JUMPDEST PUSH1 0x0 PUSH1 0x20 DUP3 ADD SWAP1 POP DUP2 DUP2 SUB PUSH1 0x0 DUP4 ADD MSTORE PUSH2 0xCF3 DUP2 DUP5 PUSH2 0xC64 JUMP JUMPDEST SWAP1 POP SWAP3 SWAP2 POP POP JUMP JUMPDEST PUSH1 0x0 DUP1 PUSH1 0x40 DUP4 DUP6 SUB SLT ISZERO PUSH2 0xD12 JUMPI PUSH2 0xD11 PUSH2 0x7D7 JUMP JUMPDEST JUMPDEST PUSH1 0x0 PUSH2 0xD20 DUP6 DUP3 DUP7 ADD PUSH2 0x994 JUMP JUMPDEST SWAP3 POP POP PUSH1 0x20 DUP4 ADD CALLDATALOAD PUSH8 0xFFFFFFFFFFFFFFFF DUP2 GT ISZERO PUSH2 0xD41 JUMPI PUSH2 0xD40 PUSH2 0x7DC JUMP JUMPDEST JUMPDEST PUSH2 0xD4D DUP6 DUP3 DUP7 ADD PUSH2 0x8F9 JUMP JUMPDEST SWAP2 POP POP SWAP3 POP SWAP3 SWAP1 POP JUMP JUMPDEST PUSH32 0x4E487B7100000000000000000000000000000000000000000000000000000000 PUSH1 0x0 MSTORE PUSH1 0x11 PUSH1 0x4 MSTORE PUSH1 0x24 PUSH1 0x0 REVERT JUMPDEST PUSH1 0x0 PUSH2 0xD91 DUP3 PUSH2 0x970 JUMP JUMPDEST SWAP2 POP PUSH2 0xD9C DUP4 PUSH2 0x970 JUMP JUMPDEST SWAP3 POP DUP3 DUP3 ADD SWAP1 POP PUSH1 0xFF DUP2 GT ISZERO PUSH2 0xDB5 JUMPI PUSH2 0xDB4 PUSH2 0xD57 JUMP JUMPDEST JUMPDEST SWAP3 SWAP2 POP POP JUMP JUMPDEST PUSH32 0x4E487B7100000000000000000000000000000000000000000000000000000000 PUSH1 0x0 MSTORE PUSH1 0x22 PUSH1 0x4 MSTORE PUSH1 0x24 PUSH1 0x0 REVERT JUMPDEST PUSH1 0x0 PUSH1 0x2 DUP3 DIV SWAP1 POP PUSH1 0x1 DUP3 AND DUP1 PUSH2 0xE02 JUMPI PUSH1 0x7F DUP3 AND SWAP2 POP JUMPDEST PUSH1 0x20 DUP3 LT DUP2 SUB PUSH2 0xE15 JUMPI PUSH2 0xE14 PUSH2 0xDBB JUMP JUMPDEST JUMPDEST POP SWAP2 SWAP1 POP JUMP JUMPDEST PUSH1 0x0 DUP2 SWAP1 POP DUP2 PUSH1 0x0 MSTORE PUSH1 0x20 PUSH1 0x0 KECCAK256 SWAP1 POP SWAP2 SWAP1 POP JUMP JUMPDEST PUSH1 0x0 PUSH1 0x20 PUSH1 0x1F DUP4 ADD DIV SWAP1 POP SWAP2 SWAP1 POP JUMP JUMPDEST PUSH1 0x0 DUP3 DUP3 SHL SWAP1 POP SWAP3 SWAP2 POP POP JUMP JUMPDEST PUSH1 0x0 PUSH1 0x8 DUP4 MUL PUSH2 0xE7D PUSH32 0xFFFFFFFFFFFFFFFFFFFFFFFFFFFFFFFFFFFFFFFFFFFFFFFFFFFFFFFFFFFFFFFF DUP3 PUSH2 0xE40 JUMP JUMPDEST PUSH2 0xE87 DUP7 DUP4 PUSH2 0xE40 JUMP JUMPDEST SWAP6 POP DUP1 NOT DUP5 AND SWAP4 POP DUP1 DUP7 AND DUP5 OR SWAP3 POP POP POP SWAP4 SWAP3 POP POP POP JUMP JUMPDEST PUSH1 0x0 DUP2 SWAP1 POP SWAP2 SWAP1 POP JUMP JUMPDEST PUSH1 0x0 PUSH2 0xEC4 PUSH2 0xEBF PUSH2 0xEBA DUP5 PUSH2 0x9D6 JUMP JUMPDEST PUSH2 0xE9F JUMP JUMPDEST PUSH2 0x9D6 JUMP JUMPDEST SWAP1 POP SWAP2 SWAP1 POP JUMP JUMPDEST PUSH1 0x0 DUP2 SWAP1 POP SWAP2 SWAP1 POP JUMP JUMPDEST PUSH2 0xEDE DUP4 PUSH2 0xEA9 JUMP JUMPDEST PUSH2 0xEF2 PUSH2 0xEEA DUP3 PUSH2 0xECB JUMP JUMPDEST DUP5 DUP5 SLOAD PUSH2 0xE4D JUMP JUMPDEST DUP3 SSTORE POP POP POP POP JUMP JUMPDEST PUSH1 0x0 SWAP1 JUMP JUMPDEST PUSH2 0xF07 PUSH2 0xEFA JUMP JUMPDEST PUSH2 0xF12 DUP2 DUP5 DUP5 PUSH2 0xED5 JUMP JUMPDEST POP POP POP JUMP JUMPDEST JUMPDEST DUP2 DUP2 LT ISZERO PUSH2 0xF36 JUMPI PUSH2 0xF2B PUSH1 0x0 DUP3 PUSH2 0xEFF JUMP JUMPDEST PUSH1 0x1 DUP2 ADD SWAP1 POP PUSH2 0xF18 JUMP JUMPDEST POP POP JUMP JUMPDEST PUSH1 0x1F DUP3 GT ISZERO PUSH2 0xF7B JUMPI PUSH2 0xF4C DUP2 PUSH2 0xE1B JUMP JUMPDEST PUSH2 0xF55 DUP5 PUSH2 0xE30 JUMP JUMPDEST DUP2 ADD PUSH1 0x20 DUP6 LT ISZERO PUSH2 0xF64 JUMPI DUP2 SWAP1 POP JUMPDEST PUSH2 0xF78 PUSH2 0xF70 DUP6 PUSH2 0xE30 JUMP JUMPDEST DUP4 ADD DUP3 PUSH2 0xF17 JUMP JUMPDEST POP POP JUMPDEST POP POP POP JUMP JUMPDEST PUSH1 0x0 DUP3 DUP3 SHR SWAP1 POP SWAP3 SWAP2 POP POP JUMP JUMPDEST PUSH1 0x0 PUSH2 0xF9E PUSH1 0x0 NOT DUP5 PUSH1 0x8 MUL PUSH2 0xF80 JUMP JUMPDEST NOT DUP1 DUP4 AND SWAP2 POP POP SWAP3 SWAP2 POP POP JUMP JUMPDEST PUSH1 0x0 PUSH2 0xFB7 DUP4 DUP4 PUSH2 0xF8D JUMP JUMPDEST SWAP2 POP DUP3 PUSH1 0x2 MUL DUP3 OR SWAP1 POP SWAP3 SWAP2 POP POP JUMP JUMPDEST PUSH2 0xFD0 DUP3 PUSH2 0xA48 JUMP JUMPDEST PUSH8 0xFFFFFFFFFFFFFFFF DUP2 GT ISZERO PUSH2 0xFE9 JUMPI PUSH2 0xFE8 PUSH2 0x7FC JUMP JUMPDEST JUMPDEST PUSH2 0xFF3 DUP3 SLOAD PUSH2 0xDEA JUMP JUMPDEST PUSH2 0xFFE DUP3 DUP3 DUP6 PUSH2 0xF3A JUMP JUMPDEST PUSH1 0x0 PUSH1 0x20 SWAP1 POP PUSH1 0x1F DUP4 GT PUSH1 0x1 DUP2 EQ PUSH2 0x1031 JUMPI PUSH1 0x0 DUP5 ISZERO PUSH2 0x101F JUMPI DUP3 DUP8 ADD MLOAD SWAP1 POP JUMPDEST PUSH2 0x1029 DUP6 DUP3 PUSH2 0xFAB JUMP JUMPDEST DUP7 SSTORE POP PUSH2 0x1091 JUMP JUMPDEST PUSH1 0x1F NOT DUP5 AND PUSH2 0x103F DUP7 PUSH2 0xE1B JUMP JUMPDEST PUSH1 0x0 JUMPDEST DUP3 DUP2 LT ISZERO PUSH2 0x1067 JUMPI DUP5 DUP10 ADD MLOAD DUP3 SSTORE PUSH1 0x1 DUP3 ADD SWAP2 POP PUSH1 0x20 DUP6 ADD SWAP5 POP PUSH1 0x20 DUP2 ADD SWAP1 POP PUSH2 0x1042 JUMP JUMPDEST DUP7 DUP4 LT ISZERO PUSH2 0x1084 JUMPI DUP5 DUP10 ADD MLOAD PUSH2 0x1080 PUSH1 0x1F DUP10 AND DUP3 PUSH2 0xF8D JUMP JUMPDEST DUP4 SSTORE POP JUMPDEST PUSH1 0x1 PUSH1 0x2 DUP9 MUL ADD DUP9 SSTORE POP POP POP JUMPDEST POP POP POP POP POP POP JUMP JUMPDEST PUSH32 0x4E487B7100000000000000000000000000000000000000000000000000000000 PUSH1 0x0 MSTORE PUSH1 0x32 PUSH1 0x4 MSTORE PUSH1 0x24 PUSH1 0x0 REVERT JUMPDEST PUSH1 0x0 PUSH2 0x10D3 DUP3 PUSH2 0x970 JUMP JUMPDEST SWAP2 POP PUSH1 0xFF DUP3 SUB PUSH2 0x10E6 JUMPI PUSH2 0x10E5 PUSH2 0xD57 JUMP JUMPDEST JUMPDEST PUSH1 0x1 DUP3 ADD SWAP1 POP SWAP2 SWAP1 POP JUMP JUMPDEST PUSH1 0x0 PUSH2 0x10FC DUP3 PUSH2 0x9D6 JUMP JUMPDEST SWAP2 POP PUSH2 0x1107 DUP4 PUSH2 0x9D6 JUMP JUMPDEST SWAP3 POP DUP3 DUP3 SUB SWAP1 POP DUP2 DUP2 GT ISZERO PUSH2 0x111F JUMPI PUSH2 0x111E PUSH2 0xD57 JUMP JUMPDEST JUMPDEST SWAP3 SWAP2 POP POP JUMP JUMPDEST PUSH1 0x0 DUP2 SLOAD SWAP1 POP PUSH2 0x1134 DUP2 PUSH2 0xDEA JUMP JUMPDEST SWAP1 POP SWAP2 SWAP1 POP JUMP JUMPDEST DUP2 DUP2 SUB PUSH2 0x1149 JUMPI POP POP PUSH2 0x1221 JUMP JUMPDEST PUSH2 0x1152 DUP3 PUSH2 0x1125 JUMP JUMPDEST PUSH8 0xFFFFFFFFFFFFFFFF DUP2 GT ISZERO PUSH2 0x116B JUMPI PUSH2 0x116A PUSH2 0x7FC JUMP JUMPDEST JUMPDEST PUSH2 0x1175 DUP3 SLOAD PUSH2 0xDEA JUMP JUMPDEST PUSH2 0x1180 DUP3 DUP3 DUP6 PUSH2 0xF3A JUMP JUMPDEST PUSH1 0x0 PUSH1 0x1F DUP4 GT PUSH1 0x1 DUP2 EQ PUSH2 0x11AF JUMPI PUSH1 0x0 DUP5 ISZERO PUSH2 0x119D JUMPI DUP3 DUP8 ADD SLOAD SWAP1 POP JUMPDEST PUSH2 0x11A7 DUP6 DUP3 PUSH2 0xFAB JUMP JUMPDEST DUP7 SSTORE POP PUSH2 0x121A JUMP JUMPDEST PUSH1 0x1F NOT DUP5 AND PUSH2 0x11BD DUP8 PUSH2 0xE1B JUMP JUMPDEST SWAP7 POP PUSH2 0x11C8 DUP7 PUSH2 0xE1B JUMP JUMPDEST PUSH1 0x0 JUMPDEST DUP3 DUP2 LT ISZERO PUSH2 0x11F0 JUMPI DUP5 DUP10 ADD SLOAD DUP3 SSTORE PUSH1 0x1 DUP3 ADD SWAP2 POP PUSH1 0x1 DUP6 ADD SWAP5 POP PUSH1 0x20 DUP2 ADD SWAP1 POP PUSH2 0x11CB JUMP JUMPDEST DUP7 DUP4 LT ISZERO PUSH2 0x120D JUMPI DUP5 DUP10 ADD SLOAD PUSH2 0x1209 PUSH1 0x1F DUP10 AND DUP3 PUSH2 0xF8D JUMP JUMPDEST DUP4 SSTORE POP JUMPDEST PUSH1 0x1 PUSH1 0x2 DUP9 MUL ADD DUP9 SSTORE POP POP POP JUMPDEST POP POP POP POP POP POP JUMPDEST JUMP JUMPDEST PUSH32 0x4E487B7100000000000000000000000000000000000000000000000000000000 PUSH1 0x0 MSTORE PUSH1 0x31 PUSH1 0x4 MSTORE PUSH1 0x24 PUSH1 0x0 REVERT INVALID LOG2 PUSH5 0x6970667358 0x22 SLT KECCAK256 PREVRANDAO 0xE DUP5 0x2B JUMPDEST DUP12 0xCD 0xD1 MCOPY PUSH18 0x6DC72453E92BD500A7901EC32BF25FA75EAB 0xD9 0xA7 CODESIZE 0xAB PUSH5 0x736F6C6343 STOP ADDMOD SHR STOP CALLER "
        },
        "methodIdentifiers": {
          "addTask(string)": "67238562",
          "deleteTask(uint8)": "c3d081f5",
          "getTask()": "a31662d2",
          "markComplete(uint8)": "83de1242",
          "tasks(uint256)": "8d977672",
          "updateTask(uint8,string)": "db6e1d32"
        }
      }
    }
  }
}